:0200000019C025
:10000200FECFFDCFFCCFFBCFFACFF9CFF8CFF7CFA2
:10001200F6CFF5CFF4CFF3CFF2CFF1CFF0CFEFCFD2
:10002200EECFEDCFECCFEBCFEACFE9CFE8CFE7CF02
:10003200E6CFF894EE27EFBBE5BFF8E1A895A4B7A9
:10004200A77FA4BFF0936000E09360008DE0A2E080
:10005200BB27ED938A95E9F780E092E0A0E0B1E05A
:10006200ED930197E9F7E0E0EEBBEFEFEDBFE2E0E1
:10007200EEBFC0E8D1E000C020D12CD1429A442486
:10008200A0E0B0E0ECD1E7BDA1E0B0E0E8D1E8BD8E
:10009200A2E0B0E0E4D1E093B300A3E0B0E0DFD1AE
:1000A200E093B400E7B5EF3F38F4E7B5E13010F084
:1000B2009DD101C09ED101C09FD157D103D033241D
:1000C200FCCFFFCFE7D1E32D9AD19BD1F1F59DD1A2
:1000D20069F4E7B5EF3F38F4E7B5EF5FE7BDE1500C
:1000E200559A599801C0599A5A982EC08AD169F4E2
:1000F200E8B5EF3F38F4E8B5EF5FE8BDE150569A56
:10010200599801C0599A5A981FC083D171F485D168
:10011200AF3F40F4A3EBB0E0EC91EF5FEC93239A96
:10012200599801C0599A5A980FC07AD169F47CD172
:10013200AF3F40F4A4EBB0E0EC91EF5FEC93539A45
:10014200599801C0599A5A98B6C063D1A1F55DD1A8
:1001520061F4E7B5E13030F0E7B5E150E7BDEF5FBC
:1001620045D102C0559863D125C04BD161F4E8B5A1
:10017200E13030F0E8B5E150E8BDEF5F37D102C0C1
:10018200569855D117C045D151F447D1A13020F02E
:10019200A3EBB0E04FD102C0239849D10BC040D1AC
:1001A20049F442D1A13020F0A4EBB0E043D102C027
:1001B20053983DD180C034D109F04EC0E3E04E16D1
:1001C20010F4439401C0442420D181F4429A43980C
:1001D20044984598E7B5EF3F38F4E7B5E13010F0C1
:1001E20005D101C006D101C007D135C00AD181F4C1
:1001F200E8B5EF3F38F4E8B5E13010F0F7D001C0D0
:10020200F8D001C0F9D04298439A4498459823C047
:1002120000D181F402D1AF3F38F4FFD0A13010F009
:10022200E5D001C0E6D001C0E7D042984398449A95
:10023200459811C0F5D079F4F7D0AF3F38F4F4D037
:10024200A13010F0D3D001C0D4D001C0D5D0429893
:1002520043984498459A2FC0E430A0E0FA0759F534
:10026200E7B5A0E0B0E006D1E8B5A1E0B0E002D188
:10027200E091B300A2E0B0E0FDD0E091B400A3E0D1
:10028200B0E0F8D0E0E05999E1E01E2FE0E05A99A1
:10029200E1E00E2F599A5A9AE0EDF7E0FA93EA93C9
:1002A200D2D0103011F4599801C0599A003011F48B
:1002B2005A9801C05A9AF1D00895E0E0E5B9E8E011
:1002C200E4B9E0E0E8B9EFEFE7B9E0E0EBB9EEE678
:1002D200EAB90895E0E8E0936100E0E0E0936100AC
:1002E200E3EAE4BDE3E0E5BDE0E0E6BDE7BDE8BD8D
:1002F200E0938000E0938100E0938500E093840026
:10030200E0938700E0938600E0938900E093880001
:10031200E0938B00E0938A00E093B600E3EAE09377
:10032200B000E4E0E093B100E0E0E093B200E093DB
:10033200B300E093B400E0936900EDBBE093680082
:10034200E0936E00E0936F00E0937000E093C100D1
:10035200E0E8E0BFE0E0E0937B00E0937F00E09321
:100362007A00ECBDE093BC000895A0E04F99A1E0B3
:10037200A03029F4A0E01999A1E0A03009F002C050
:10038200E4E00DC04F9902C0E1E009C0199902C032
:10039200E2E005C0189902C0E3E001C0E0E0E093AA
:1003A2008001E030E9F04AD0A132EEE4BE074CF021
:1003B200ECE2FCE4E0938101F09382013090800151
:1003C20007C0A1E8B1E0ED91FD913196FE93EE9365
:1003D20035D0A83EE3E0BE0711F43090800105C09D
:1003E200E0E0E0938101E0938201089559985A98E0
:1003F200089559985A9A0895599A5A980895F0E08A
:100402000895E130A0E0FA070895E42DF8DF30976F
:100412000895E230A0E0FA070895A091B30008958C
:10042200E330A0E0FA070895A091B40008955A9A23
:1004320059980895EC91E150EC93D8CFA0918101A5
:10044200B09182010895E991F991309639F080EDE9
:1004520097E00197F1F7A8953197C9F70895F999AF
:10046200FECFFF93FFB7F894A1BDF89AE0B5FFBFA6
:10047200FF910895F99B02C0A895FCCF9FB7F8940D
:10048200A1BDF89A80B5E81719F0E0BDFA9AF99A79
:100492009FBF08951A930A93089509911991089597
:00000001FF
